{
  "_format": "hh-sol-artifact-1",
  "contractName": "Game",
  "sourceName": "contracts/Game.sol",
  "abi": [
    {
      "inputs": [
        {
          "internalType": "address[]",
          "name": "_teamAddresses",
          "type": "address[]"
        }
      ],
      "stateMutability": "nonpayable",
      "type": "constructor"
    },
    {
      "inputs": [],
      "name": "ReentrancyGuardReentrantCall",
      "type": "error"
    },
    {
      "anonymous": false,
      "inputs": [
        {
          "indexed": true,
          "internalType": "address",
          "name": "payer",
          "type": "address"
        },
        {
          "indexed": false,
          "internalType": "uint256",
          "name": "amount",
          "type": "uint256"
        }
      ],
      "name": "PaymentReceived",
      "type": "event"
    },
    {
      "anonymous": false,
      "inputs": [
        {
          "indexed": true,
          "internalType": "address",
          "name": "winner",
          "type": "address"
        },
        {
          "indexed": false,
          "internalType": "uint256",
          "name": "amount",
          "type": "uint256"
        }
      ],
      "name": "PrizeAwarded",
      "type": "event"
    },
    {
      "anonymous": false,
      "inputs": [
        {
          "indexed": true,
          "internalType": "address",
          "name": "user",
          "type": "address"
        },
        {
          "indexed": false,
          "internalType": "uint256",
          "name": "amount",
          "type": "uint256"
        }
      ],
      "name": "PrizePoolDistributedAfterTimeExpired",
      "type": "event"
    },
    {
      "anonymous": false,
      "inputs": [
        {
          "indexed": false,
          "internalType": "uint256",
          "name": "newTotal",
          "type": "uint256"
        }
      ],
      "name": "PrizePoolIncreased",
      "type": "event"
    },
    {
      "anonymous": false,
      "inputs": [
        {
          "indexed": true,
          "internalType": "address",
          "name": "teamMember",
          "type": "address"
        },
        {
          "indexed": false,
          "internalType": "uint256",
          "name": "amount",
          "type": "uint256"
        }
      ],
      "name": "TeamPaymentSent",
      "type": "event"
    },
    {
      "anonymous": false,
      "inputs": [
        {
          "indexed": true,
          "internalType": "address",
          "name": "user",
          "type": "address"
        },
        {
          "indexed": false,
          "internalType": "uint256",
          "name": "amount",
          "type": "uint256"
        }
      ],
      "name": "UnclaimedPrizeShareAdded",
      "type": "event"
    },
    {
      "anonymous": false,
      "inputs": [
        {
          "indexed": true,
          "internalType": "address",
          "name": "user",
          "type": "address"
        },
        {
          "indexed": false,
          "internalType": "uint256",
          "name": "amount",
          "type": "uint256"
        }
      ],
      "name": "UnclaimedPrizeShareClaimed",
      "type": "event"
    },
    {
      "inputs": [
        {
          "internalType": "address payable",
          "name": "winner",
          "type": "address"
        }
      ],
      "name": "awardPrize",
      "outputs": [],
      "stateMutability": "nonpayable",
      "type": "function"
    },
    {
      "inputs": [],
      "name": "claimFailedShare",
      "outputs": [],
      "stateMutability": "nonpayable",
      "type": "function"
    },
    {
      "inputs": [],
      "name": "currentPrice",
      "outputs": [
        {
          "internalType": "uint256",
          "name": "",
          "type": "uint256"
        }
      ],
      "stateMutability": "view",
      "type": "function"
    },
    {
      "inputs": [],
      "name": "deploymentTime",
      "outputs": [
        {
          "internalType": "uint256",
          "name": "",
          "type": "uint256"
        }
      ],
      "stateMutability": "view",
      "type": "function"
    },
    {
      "inputs": [],
      "name": "distributeIfTimeExpired",
      "outputs": [],
      "stateMutability": "nonpayable",
      "type": "function"
    },
    {
      "inputs": [],
      "name": "gameEnded",
      "outputs": [
        {
          "internalType": "bool",
          "name": "",
          "type": "bool"
        }
      ],
      "stateMutability": "view",
      "type": "function"
    },
    {
      "inputs": [],
      "name": "getCurrentPrice",
      "outputs": [
        {
          "internalType": "uint256",
          "name": "",
          "type": "uint256"
        }
      ],
      "stateMutability": "view",
      "type": "function"
    },
    {
      "inputs": [
        {
          "internalType": "address",
          "name": "payer",
          "type": "address"
        }
      ],
      "name": "getPaymentHistory",
      "outputs": [
        {
          "components": [
            {
              "internalType": "uint256",
              "name": "amount",
              "type": "uint256"
            },
            {
              "internalType": "uint256",
              "name": "timestamp",
              "type": "uint256"
            }
          ],
          "internalType": "struct Game.Payment[]",
          "name": "",
          "type": "tuple[]"
        }
      ],
      "stateMutability": "view",
      "type": "function"
    },
    {
      "inputs": [],
      "name": "getPrizePool",
      "outputs": [
        {
          "internalType": "uint256",
          "name": "",
          "type": "uint256"
        }
      ],
      "stateMutability": "view",
      "type": "function"
    },
    {
      "inputs": [],
      "name": "lastPlayer",
      "outputs": [
        {
          "internalType": "address",
          "name": "",
          "type": "address"
        }
      ],
      "stateMutability": "view",
      "type": "function"
    },
    {
      "inputs": [],
      "name": "owner",
      "outputs": [
        {
          "internalType": "address",
          "name": "",
          "type": "address"
        }
      ],
      "stateMutability": "view",
      "type": "function"
    },
    {
      "inputs": [],
      "name": "pay",
      "outputs": [],
      "stateMutability": "payable",
      "type": "function"
    },
    {
      "inputs": [
        {
          "internalType": "address",
          "name": "",
          "type": "address"
        },
        {
          "internalType": "uint256",
          "name": "",
          "type": "uint256"
        }
      ],
      "name": "paymentHistory",
      "outputs": [
        {
          "internalType": "uint256",
          "name": "amount",
          "type": "uint256"
        },
        {
          "internalType": "uint256",
          "name": "timestamp",
          "type": "uint256"
        }
      ],
      "stateMutability": "view",
      "type": "function"
    },
    {
      "inputs": [],
      "name": "prizePool",
      "outputs": [
        {
          "internalType": "uint256",
          "name": "",
          "type": "uint256"
        }
      ],
      "stateMutability": "view",
      "type": "function"
    },
    {
      "inputs": [
        {
          "internalType": "uint256",
          "name": "",
          "type": "uint256"
        }
      ],
      "name": "teamAddresses",
      "outputs": [
        {
          "internalType": "address",
          "name": "",
          "type": "address"
        }
      ],
      "stateMutability": "view",
      "type": "function"
    },
    {
      "inputs": [
        {
          "internalType": "address",
          "name": "",
          "type": "address"
        }
      ],
      "name": "teamBalances",
      "outputs": [
        {
          "internalType": "uint256",
          "name": "",
          "type": "uint256"
        }
      ],
      "stateMutability": "view",
      "type": "function"
    },
    {
      "inputs": [
        {
          "internalType": "address",
          "name": "",
          "type": "address"
        }
      ],
      "name": "unclaimedShares",
      "outputs": [
        {
          "internalType": "uint256",
          "name": "",
          "type": "uint256"
        }
      ],
      "stateMutability": "view",
      "type": "function"
    },
    {
      "inputs": [],
      "name": "withdrawTeamShare",
      "outputs": [],
      "stateMutability": "nonpayable",
      "type": "function"
    }
  ],
  "bytecode": "0x608060405234801561001057600080fd5b506040516125a83803806125a883398181016040528101906100329190610364565b6001600081905550600081511161007e576040517f08c379a000000000000000000000000000000000000000000000000000000000815260040161007590610430565b60405180910390fd5b80600490805190602001906100949291906100f2565b50678ac7230489e8000060078190555033600160006101000a81548173ffffffffffffffffffffffffffffffffffffffff021916908373ffffffffffffffffffffffffffffffffffffffff1602179055504260028190555050610450565b82805482825590600052602060002090810192821561016b579160200282015b8281111561016a5782518260006101000a81548173ffffffffffffffffffffffffffffffffffffffff021916908373ffffffffffffffffffffffffffffffffffffffff16021790555091602001919060010190610112565b5b509050610178919061017c565b5090565b5b8082111561019557600081600090555060010161017d565b5090565b6000604051905090565b600080fd5b600080fd5b600080fd5b6000601f19601f8301169050919050565b7f4e487b7100000000000000000000000000000000000000000000000000000000600052604160045260246000fd5b6101fb826101b2565b810181811067ffffffffffffffff8211171561021a576102196101c3565b5b80604052505050565b600061022d610199565b905061023982826101f2565b919050565b600067ffffffffffffffff821115610259576102586101c3565b5b602082029050602081019050919050565b600080fd5b600073ffffffffffffffffffffffffffffffffffffffff82169050919050565b600061029a8261026f565b9050919050565b6102aa8161028f565b81146102b557600080fd5b50565b6000815190506102c7816102a1565b92915050565b60006102e06102db8461023e565b610223565b905080838252602082019050602084028301858111156103035761030261026a565b5b835b8181101561032c578061031888826102b8565b845260208401935050602081019050610305565b5050509392505050565b600082601f83011261034b5761034a6101ad565b5b815161035b8482602086016102cd565b91505092915050565b60006020828403121561037a576103796101a3565b5b600082015167ffffffffffffffff811115610398576103976101a8565b5b6103a484828501610336565b91505092915050565b600082825260208201905092915050565b7f4d7573742070726f76696465206174206c65617374206f6e65207465616d206160008201527f6464726573730000000000000000000000000000000000000000000000000000602082015250565b600061041a6026836103ad565b9150610425826103be565b604082019050919050565b600060208201905081810360008301526104498161040d565b9050919050565b6121498061045f6000396000f3fe6080604052600436106101095760003560e01c80638da5cb5b11610095578063cc38b47711610064578063cc38b4771461033a578063e3450e1314610378578063eb91d37e146103a3578063ecda10f5146103ce578063ef6c7d53146103f957610109565b80638da5cb5b1461027e5780639d1b464a146102a9578063ab504ad5146102d4578063c7fc2fd81461031157610109565b8063719ce73e116100dc578063719ce73e1461019757806377fadb66146101c25780637da2ba7c146101d95780637f769ec014610216578063884bf67c1461025357610109565b80631b9265b81461010e5780632419217e146101185780632f6fe39614610155578063330471e514610180575b600080fd5b610116610410565b005b34801561012457600080fd5b5061013f600480360381019061013a919061175c565b610875565b60405161014c91906117ca565b60405180910390f35b34801561016157600080fd5b5061016a6108b4565b6040516101779190611800565b60405180910390f35b34801561018c57600080fd5b506101956108c7565b005b3480156101a357600080fd5b506101ac610a43565b6040516101b9919061182a565b60405180910390f35b3480156101ce57600080fd5b506101d7610a49565b005b3480156101e557600080fd5b5061020060048036038101906101fb9190611871565b610fb1565b60405161020d919061198b565b60405180910390f35b34801561022257600080fd5b5061023d60048036038101906102389190611871565b611063565b60405161024a919061182a565b60405180910390f35b34801561025f57600080fd5b5061026861107b565b604051610275919061182a565b60405180910390f35b34801561028a57600080fd5b50610293611085565b6040516102a091906117ca565b60405180910390f35b3480156102b557600080fd5b506102be6110ab565b6040516102cb919061182a565b60405180910390f35b3480156102e057600080fd5b506102fb60048036038101906102f69190611871565b6110b1565b604051610308919061182a565b60405180910390f35b34801561031d57600080fd5b50610338600480360381019061033391906119eb565b6110c9565b005b34801561034657600080fd5b50610361600480360381019061035c9190611a18565b611327565b60405161036f929190611a58565b60405180910390f35b34801561038457600080fd5b5061038d611368565b60405161039a91906117ca565b60405180910390f35b3480156103af57600080fd5b506103b861138e565b6040516103c5919061182a565b60405180910390f35b3480156103da57600080fd5b506103e3611398565b6040516103f0919061182a565b60405180910390f35b34801561040557600080fd5b5061040e61139e565b005b6104186115c2565b600360009054906101000a900460ff1615610468576040517f08c379a000000000000000000000000000000000000000000000000000000000815260040161045f90611ade565b60405180910390fd5b6007543410156104ad576040517f08c379a00000000000000000000000000000000000000000000000000000000081526004016104a490611b4a565b60405180910390fd5b33600b60006101000a81548173ffffffffffffffffffffffffffffffffffffffff021916908373ffffffffffffffffffffffffffffffffffffffff160217905550600860003373ffffffffffffffffffffffffffffffffffffffff1673ffffffffffffffffffffffffffffffffffffffff168152602001908152602001600020604051806040016040528034815260200142815250908060018154018082558091505060019003906000526020600020906002020160009091909190915060008201518160000155602082015181600101555050600a60003373ffffffffffffffffffffffffffffffffffffffff1673ffffffffffffffffffffffffffffffffffffffff16815260200190815260200160002060009054906101000a900460ff1661068e576001600a60003373ffffffffffffffffffffffffffffffffffffffff1673ffffffffffffffffffffffffffffffffffffffff16815260200190815260200160002060006101000a81548160ff0219169083151502179055506009339080600181540180825580915050600190039060005260206000200160009091909190916101000a81548173ffffffffffffffffffffffffffffffffffffffff021916908373ffffffffffffffffffffffffffffffffffffffff1602179055505b60006064601e3461069f9190611b99565b6106a99190611c0a565b9050600081346106b99190611c3b565b90506000600480549050836106ce9190611c0a565b905060005b600480549050811015610781578160056000600484815481106106f9576106f8611c6f565b5b9060005260206000200160009054906101000a900473ffffffffffffffffffffffffffffffffffffffff1673ffffffffffffffffffffffffffffffffffffffff1673ffffffffffffffffffffffffffffffffffffffff168152602001908152602001600020600082825461076d9190611c9e565b9250508190555080806001019150506106d3565b5081600660008282546107949190611c9e565b925050819055507f3c231f64b16483d16ca517ccd881f34f86dd04ccc1305e65b854fe82189b76256006546040516107cc919061182a565b60405180910390a1600061271061275e6007546107e99190611b99565b6107f39190611c0a565b9050600068f3f20b8dfa69d0000090508082116108105781610812565b805b6007819055503373ffffffffffffffffffffffffffffffffffffffff167f6ef95f06320e7a25a04a175ca677b7052bdd97131872c2192525a629f51be7703460405161085e919061182a565b60405180910390a25050505050610873611608565b565b6004818154811061088557600080fd5b906000526020600020016000915054906101000a900473ffffffffffffffffffffffffffffffffffffffff1681565b600360009054906101000a900460ff1681565b6108cf6115c2565b6000600c60003373ffffffffffffffffffffffffffffffffffffffff1673ffffffffffffffffffffffffffffffffffffffff16815260200190815260200160002054905060008111610956576040517f08c379a000000000000000000000000000000000000000000000000000000000815260040161094d90611d1e565b60405180910390fd5b6000600c60003373ffffffffffffffffffffffffffffffffffffffff1673ffffffffffffffffffffffffffffffffffffffff1681526020019081526020016000208190555060006109a73383611612565b9050806109e9576040517f08c379a00000000000000000000000000000000000000000000000000000000081526004016109e090611d8a565b60405180910390fd5b3373ffffffffffffffffffffffffffffffffffffffff167fe45e9c12223333e53e6885494d1042b6309e816bb0f6ff25e53531d526f7f0a883604051610a2f919061182a565b60405180910390a25050610a41611608565b565b60065481565b610a516115c2565b600360009054906101000a900460ff1615610aa1576040517f08c379a0000000000000000000000000000000000000000000000000000000008152600401610a9890611df6565b60405180910390fd5b62278d00600254610ab29190611c9e565b421015610af4576040517f08c379a0000000000000000000000000000000000000000000000000000000008152600401610aeb90611e62565b60405180910390fd5b600060065411610b39576040517f08c379a0000000000000000000000000000000000000000000000000000000008152600401610b3090611ece565b60405180910390fd5b6001600360006101000a81548160ff02191690831515021790555060006064600a600654610b679190611b99565b610b719190611c0a565b9050600081600654610b839190611c3b565b90506000806009805480602002602001604051908101604052809291908181526020018280548015610c0a57602002820191906000526020600020905b8160009054906101000a900473ffffffffffffffffffffffffffffffffffffffff1673ffffffffffffffffffffffffffffffffffffffff1681526020019060010190808311610bc0575b505050505090506000815167ffffffffffffffff811115610c2e57610c2d611eee565b5b604051908082528060200260200182016040528015610c5c5781602001602082028036833780820191505090505b50905060005b8251811015610dbc576000838281518110610c8057610c7f611c6f565b5b602002602001015190506000600860008373ffffffffffffffffffffffffffffffffffffffff1673ffffffffffffffffffffffffffffffffffffffff168152602001908152602001600020805480602002602001604051908101604052809291908181526020016000905b82821015610d3157838290600052602060002090600202016040518060400160405290816000820154815260200160018201548152505081526020019060010190610ceb565b5050505090506000805b8251811015610d7d57828181518110610d5757610d56611c6f565b5b60200260200101516000015182610d6e9190611c9e565b91508080600101915050610d3b565b5080858581518110610d9257610d91611c6f565b5b6020026020010181815250508087610daa9190611c9e565b96505050508080600101915050610c62565b50600073ffffffffffffffffffffffffffffffffffffffff16600b60009054906101000a900473ffffffffffffffffffffffffffffffffffffffff1673ffffffffffffffffffffffffffffffffffffffff1614610ebc576000610e41600b60009054906101000a900473ffffffffffffffffffffffffffffffffffffffff1687611612565b90508015610eba57600b60009054906101000a900473ffffffffffffffffffffffffffffffffffffffff1673ffffffffffffffffffffffffffffffffffffffff167ffbef771802f0895086ecbcc82d7035b254a282ec56180ca4b9ea8be67f233d0787604051610eb1919061182a565b60405180910390a25b505b60005b8251811015610f99576000838281518110610edd57610edc611c6f565b5b60200260200101519050600085848481518110610efd57610efc611c6f565b5b602002602001015188610f109190611b99565b610f1a9190611c0a565b90506000811115610f8a576000610f318383611612565b90508015610f88578273ffffffffffffffffffffffffffffffffffffffff167ffbef771802f0895086ecbcc82d7035b254a282ec56180ca4b9ea8be67f233d0783604051610f7f919061182a565b60405180910390a25b505b50508080600101915050610ebf565b5060006006819055505050505050610faf611608565b565b6060600860008373ffffffffffffffffffffffffffffffffffffffff1673ffffffffffffffffffffffffffffffffffffffff168152602001908152602001600020805480602002602001604051908101604052809291908181526020016000905b8282101561105857838290600052602060002090600202016040518060400160405290816000820154815260200160018201548152505081526020019060010190611012565b505050509050919050565b60056020528060005260406000206000915090505481565b6000600654905090565b600160009054906101000a900473ffffffffffffffffffffffffffffffffffffffff1681565b60075481565b600c6020528060005260406000206000915090505481565b6110d16115c2565b600160009054906101000a900473ffffffffffffffffffffffffffffffffffffffff1673ffffffffffffffffffffffffffffffffffffffff163373ffffffffffffffffffffffffffffffffffffffff1614611161576040517f08c379a000000000000000000000000000000000000000000000000000000000815260040161115890611f69565b60405180910390fd5b6000600654116111a6576040517f08c379a000000000000000000000000000000000000000000000000000000000815260040161119d90611ece565b60405180910390fd5b600360009054906101000a900460ff16156111f6576040517f08c379a00000000000000000000000000000000000000000000000000000000081526004016111ed90611df6565b60405180910390fd5b6001600360006101000a81548160ff02191690831515021790555060006006549050600060068190555060008273ffffffffffffffffffffffffffffffffffffffff168260405161124690611fba565b60006040518083038185875af1925050503d8060008114611283576040519150601f19603f3d011682016040523d82523d6000602084013e611288565b606091505b50509050806112cc576040517f08c379a00000000000000000000000000000000000000000000000000000000081526004016112c39061201b565b60405180910390fd5b8273ffffffffffffffffffffffffffffffffffffffff167f9cd22dee3003b56f812d04d117695735c0ecbe23900d2db878c7b718d02053ff83604051611312919061182a565b60405180910390a25050611324611608565b50565b6008602052816000526040600020818154811061134357600080fd5b9060005260206000209060020201600091509150508060000154908060010154905082565b600b60009054906101000a900473ffffffffffffffffffffffffffffffffffffffff1681565b6000600754905090565b60025481565b6113a66115c2565b6000600560003373ffffffffffffffffffffffffffffffffffffffff1673ffffffffffffffffffffffffffffffffffffffff1681526020019081526020016000205490506000811161142d576040517f08c379a000000000000000000000000000000000000000000000000000000000815260040161142490612087565b60405180910390fd5b6000600560003373ffffffffffffffffffffffffffffffffffffffff1673ffffffffffffffffffffffffffffffffffffffff1681526020019081526020016000208190555060003373ffffffffffffffffffffffffffffffffffffffff168260405161149890611fba565b60006040518083038185875af1925050503d80600081146114d5576040519150601f19603f3d011682016040523d82523d6000602084013e6114da565b606091505b50509050806115285781600560003373ffffffffffffffffffffffffffffffffffffffff1673ffffffffffffffffffffffffffffffffffffffff168152602001908152602001600020819055505b80611568576040517f08c379a000000000000000000000000000000000000000000000000000000000815260040161155f906120f3565b60405180910390fd5b3373ffffffffffffffffffffffffffffffffffffffff167fb647fd32ef77ab2e174b66e9439cf5ae487bf95a478653c88b344e8eefd706f2836040516115ae919061182a565b60405180910390a250506115c0611608565b565b6002600054036115fe576040517f3ee5aeb500000000000000000000000000000000000000000000000000000000815260040160405180910390fd5b6002600081905550565b6001600081905550565b6000808373ffffffffffffffffffffffffffffffffffffffff168360405161163990611fba565b60006040518083038185875af1925050503d8060008114611676576040519150601f19603f3d011682016040523d82523d6000602084013e61167b565b606091505b50509050806117175782600c60008673ffffffffffffffffffffffffffffffffffffffff1673ffffffffffffffffffffffffffffffffffffffff168152602001908152602001600020819055508373ffffffffffffffffffffffffffffffffffffffff167f1b4fcf30240c3700d1ed2ab341b64d8d1481bee0decb3b16aa9ff1fa886321908460405161170e919061182a565b60405180910390a25b8091505092915050565b600080fd5b6000819050919050565b61173981611726565b811461174457600080fd5b50565b60008135905061175681611730565b92915050565b60006020828403121561177257611771611721565b5b600061178084828501611747565b91505092915050565b600073ffffffffffffffffffffffffffffffffffffffff82169050919050565b60006117b482611789565b9050919050565b6117c4816117a9565b82525050565b60006020820190506117df60008301846117bb565b92915050565b60008115159050919050565b6117fa816117e5565b82525050565b600060208201905061181560008301846117f1565b92915050565b61182481611726565b82525050565b600060208201905061183f600083018461181b565b92915050565b61184e816117a9565b811461185957600080fd5b50565b60008135905061186b81611845565b92915050565b60006020828403121561188757611886611721565b5b60006118958482850161185c565b91505092915050565b600081519050919050565b600082825260208201905092915050565b6000819050602082019050919050565b6118d381611726565b82525050565b6040820160008201516118ef60008501826118ca565b50602082015161190260208501826118ca565b50505050565b600061191483836118d9565b60408301905092915050565b6000602082019050919050565b60006119388261189e565b61194281856118a9565b935061194d836118ba565b8060005b8381101561197e5781516119658882611908565b975061197083611920565b925050600181019050611951565b5085935050505092915050565b600060208201905081810360008301526119a5818461192d565b905092915050565b60006119b882611789565b9050919050565b6119c8816119ad565b81146119d357600080fd5b50565b6000813590506119e5816119bf565b92915050565b600060208284031215611a0157611a00611721565b5b6000611a0f848285016119d6565b91505092915050565b60008060408385031215611a2f57611a2e611721565b5b6000611a3d8582860161185c565b9250506020611a4e85828601611747565b9150509250929050565b6000604082019050611a6d600083018561181b565b611a7a602083018461181b565b9392505050565b600082825260208201905092915050565b7f47616d652068617320656e646564000000000000000000000000000000000000600082015250565b6000611ac8600e83611a81565b9150611ad382611a92565b602082019050919050565b60006020820190508181036000830152611af781611abb565b9050919050565b7f496e73756666696369656e74207061796d656e7420616d6f756e740000000000600082015250565b6000611b34601b83611a81565b9150611b3f82611afe565b602082019050919050565b60006020820190508181036000830152611b6381611b27565b9050919050565b7f4e487b7100000000000000000000000000000000000000000000000000000000600052601160045260246000fd5b6000611ba482611726565b9150611baf83611726565b9250828202611bbd81611726565b91508282048414831517611bd457611bd3611b6a565b5b5092915050565b7f4e487b7100000000000000000000000000000000000000000000000000000000600052601260045260246000fd5b6000611c1582611726565b9150611c2083611726565b925082611c3057611c2f611bdb565b5b828204905092915050565b6000611c4682611726565b9150611c5183611726565b9250828203905081811115611c6957611c68611b6a565b5b92915050565b7f4e487b7100000000000000000000000000000000000000000000000000000000600052603260045260246000fd5b6000611ca982611726565b9150611cb483611726565b9250828201905080821115611ccc57611ccb611b6a565b5b92915050565b7f4e6f20756e636c61696d656420736861726520746f20636c61696d0000000000600082015250565b6000611d08601b83611a81565b9150611d1382611cd2565b602082019050919050565b60006020820190508181036000830152611d3781611cfb565b9050919050565b7f436c61696d207472616e73666572206661696c65640000000000000000000000600082015250565b6000611d74601583611a81565b9150611d7f82611d3e565b602082019050919050565b60006020820190508181036000830152611da381611d67565b9050919050565b7f47616d652068617320616c726561647920656e64656400000000000000000000600082015250565b6000611de0601683611a81565b9150611deb82611daa565b602082019050919050565b60006020820190508181036000830152611e0f81611dd3565b9050919050565b7f4f6e65206d6f6e746820706572696f64206e6f7420656c617073656400000000600082015250565b6000611e4c601c83611a81565b9150611e5782611e16565b602082019050919050565b60006020820190508181036000830152611e7b81611e3f565b9050919050565b7f5072697a6520706f6f6c20697320656d70747900000000000000000000000000600082015250565b6000611eb8601383611a81565b9150611ec382611e82565b602082019050919050565b60006020820190508181036000830152611ee781611eab565b9050919050565b7f4e487b7100000000000000000000000000000000000000000000000000000000600052604160045260246000fd5b7f4f6e6c79206f776e65722063616e206177617264207072697a65000000000000600082015250565b6000611f53601a83611a81565b9150611f5e82611f1d565b602082019050919050565b60006020820190508181036000830152611f8281611f46565b9050919050565b600081905092915050565b50565b6000611fa4600083611f89565b9150611faf82611f94565b600082019050919050565b6000611fc582611f97565b9150819050919050565b7f5072697a65207472616e73666572206661696c65640000000000000000000000600082015250565b6000612005601583611a81565b915061201082611fcf565b602082019050919050565b6000602082019050818103600083015261203481611ff8565b9050919050565b7f4e6f2062616c616e636520746f20776974686472617700000000000000000000600082015250565b6000612071601683611a81565b915061207c8261203b565b602082019050919050565b600060208201905081810360008301526120a081612064565b9050919050565b7f5472616e73666572206661696c65640000000000000000000000000000000000600082015250565b60006120dd600f83611a81565b91506120e8826120a7565b602082019050919050565b6000602082019050818103600083015261210c816120d0565b905091905056fea2646970667358221220631f25ea0e1bcaa8fcddd5ba0f6bd86956e875cf98f32bb7dd6c3f2218d0a52064736f6c634300081c0033",
  "linkReferences": {},
  "deployedLinkReferences": {}
}